relayer_public_key Public RSA key at 0x30BC44F0
preimage: 464
tx {'chainId': 123, 'from': '0xeF860fb0634474AE0E6ceC1A8E0dBE7C70A280A5', 'gas': 5000000, 'gasPrice': 1000000000, 'value': 0, 'nonce': 1, 'to': '0x2ACe51b358Aa73b3D85C1962e8D2A9cD8e6349c7', 'data': '0x44021ad700000000000000000000000000000000000000000000000000000000000001d0'}
signed_tx SignedTransaction(rawTransaction=HexBytes('0xf88a01843b9aca00834c4b40942ace51b358aa73b3d85c1962e8d2a9cd8e6349c780a444021ad700000000000000000000000000000000000000000000000000000000000001d082011aa00630b211a50ad07cf79f49e25e52a39b31c47ed2e09fb89ba71ae3a24e321d0aa074f23e2f78cea99af05dfdc5ba2cca47a77604ca936a9b8b2c967e72c430fa02'), hash=HexBytes('0xd6be458e8af36af26479b54b161347bfec10e19a03227bd23816bb612eeb20b6'), r=2799914737158759754225722210566918214586267430016806139496679199811191315722, s=52896296613448755460125488870054249784010950002223259656224427550788763580930, v=282)
block (b"\xa9\x9e\x03\xa5=\xd5\xd7\xe6n\x185kH*tuZX\x904\xfc\x90\xe7p\xa02n\xec\x1e\x89\x88/\\J\x87\x90 V\xa7E\x98\xa1@\x1f\x817$\xdd\xf0%\xb2oB\x85\x08u&\x1e\xf3\xb712\x1b\xc3\xdd.h\x88oa\xb8=\xf8\xa9<\x07\x11\xa1r3a\x0e\xf3\x1f&\x06CF\x06e\x8a\x8cu{6\x93@\x9e8\xf6\xcb\xf1\xa4\xc7\x99F\xe12T$p]\x91\xe9s\x96\xe4h\xaf</\x01da\x06\x1fE*\x8b\xee\x9c\xe1\xb4n<\x13CfX\xfcx4\xfb';\xe4Y\x96F\x12\xc5\xc9\xb0\xb6E\x02\xf7\x915WA\x15\xe1\xe4\x1f\x0c\xe5\xf6;\x85\xf8\xad\xe5\x0b\xcd\x9f\xf7H=\x1b\xcb\xea\x01\x96\xe4j\xe5\x170\xe2\xe2:}\xd8\x7f\xcd\xd1K\x14\xd23Um\xf6Nx\xafG\xa8\x0f \xee\x95Qk,\x85\tI\xd1\xc7\x877%\x16n\xa8X\x05@2\xe6\x1fzZ\xce]\x98\xf4\xbc\xda\xbft\xc2m\xd7uz\xef\x1c\xa3\x8c\x14\x1bo\xc0", b'\xd4\xc0)\x13e[\xd3M%K M-c\xdbK', b'\xd9xt?\xbc!\x92n\x85v\x1a\x032\xaa\xeb\x8a', b'\x16?WH6`\xb2\x8e\x0e\x84+\xef,\xafJ:\xec@m\xdbB*%_\xce\xff\xc3\x0bW\xfciu\x88\x94\xba(\xb0\x8e\xdc\x00\xe4\xac\x95\xde\xfa\x84\x1a\x1e\xe1\x02[\x8f\xf8\xec1O`\xbbmD\xb5\x1a}\xa8C\xa7+\x84\x8b\n\'\xcaE\xe2(X5\xf6\x06G\x18a\x99gP\x88\xe6\xf5\x9dl\x9c\x98\x9cp\xe9A~\x17\xdb\xc4\xb5\x838KS\xd4/g\xdc\x18P\xcd\xc2\x030\xec/|\x84\xb8\x1a\x9a\xa2c_\xf8\xe4\xe8\xb4\xa0`WNxr\x00\x9f\x1f/2z\x81+\xee3\x85\x1eNFn\xf1q\xf9\xbbZ\x99\xdd\x98\xf2\x1a\xb8LR\x0cI\xe8\x93\xe92\x9c\xd9\x89\x96\x1d\xb3PX\xe5\x1dE\xf7\xd9\xe6(@-"\xf2\x7f\xa2tP\xd4o\\\x05\xcfJ\xe4\xd4e\xfecae\x14\xca\x10\x9f\xfe\xf3\xc6\x8cFV\x96\xb6\xf1\xa7)\xf6\xc0\xd3\xd7\xd3\xedN#\xa9\xe4\xfe\xf8\x18\xe2\xe0\xbd\x15-\xb6\xfc\x1c\x93\x14\x90\x0b{}\xe3\xa9\xf4\xfeg\xc8\x97\x9dZ\xad\xa2\x1akI\x9d0o{\xbc\xc0\x85\xfc\xb6\xd4\x83\xb9p<\x12\xdb\x1a\xa1"s\xf9i\xfc\xfd\x0c\xec\xda\xe6^\xed{%S3\xa7=l\xfcGL?*\x13\xc8i\x1a@\x19\x02\xc6c\xb9znsne~F6\x97\x14\xcb\xbdp\x94(\x1d\xb61!\xc9\x05\x05\xf2\xe1\xb9\xbaX\x8f<\xf2\xd7\x95\xd9\x1d\x9e\xe5\xb8\x02P\x84\xf6o\xccZ[\x89f\xdd\xf4R\x9d\xcc{a\xee\x9d\x97\xe7\x02D\xe0c\x9cO\x1e\xd5y)\xc1\x89Gy\xd0\x94\x00\xbe\xedb\x93yl\xb20\xbb\x88\n\xf0\x1eV\xdbP\x15s\x9d\xb4\x88\xc5\\\xf89ne\x97d\xfad\x1c\xcb\x88\xffG\xc0_\x00+\x13%\xe6@tJ\xe0\xee\xd6\xadj\xfc\x0c\x12\xa3\x13\xea\xdft\xdb?\x80\xae\xe0-\xf1w\x8e\x92ll*\x1a\xe8\xfd!\x0e\xb2\xd0\x07\xc2;\xd7\x1d\xd4\x9f\x852b\xce\xee\xf4\xb7_\x0bu\x80M\nb\t\x0b\xc8!o\xde!HQ\x0f|\xe2\xa9\x9e\x1d\xf1\xbb\xe4\xc0d\x1bPI\xb89\xc8~\\\x1en\xa6\xd3\xfe\xc3\xc2[\xf8\x0bv\xde\xb0\x8a\xf8x\xaf\xba\xaf\x82K\'c\x91V\tF\xfd\xc9pb\x9bC\xd3\xdf\xbb\x8e\xd5\x1b\xa6t\xecz\xf0kS\x9a')
sting_addr 0xeF860fb0634474AE0E6ceC1A8E0dBE7C70A280A5
